:020000040800F2
:10000000882B0020D9930008A18C0008A38C00083D
:10001000A58C0008A78C0008A98C0008000000002F
:10002000000000000000000000000000AB8C000891
:10003000AD8C000800000000AF8C0008B18C0008F7
:100040000194000805940008099400087D8F0008B9
:100050000D940008119400081594000819940008E4
:100060001D940008AD8D0008F98D00086F8E000802
:100070002194000825940008299400082D94000874
:100080003194000835940008399400080590000860
:10009000079000083D94000841940008459400082A
:1000A000499400084D9400085194000855940008A4
:1000B000CD8E0008599400085D94000861940008F2
:1000C00065940008699400086D9400087194000814
:1000D00075940008CF8C0008DD8C0008318D000875
:1000E0000D8E0008B18F00087994000810B5040047
:1000F00014F001024FF48071DFF8440C01F02CFD84
:1001000001228021DFF8380C01F026FD0022802139
:10011000DFF82C0C01F020FD10BD70B504000D00BF
:1001200000200600F6B2EDB2AE4206D234FA06F076
:10013000C0B2FFF7DBFF761CF4E770BD10B504001A
:1001400000224FF40061DFF8D80901F005FD0E210F
:10015000A4B22000FFF7E1FF01224021DFF8E00B0D
:1001600001F0FAFC00224021DFF8D40B01F0F4FC8E
:1001700010BD80B5DFF8CC0B0078552812D1DFF820
:10018000A4090088FFF7DAFFDFF898090088DFF894
:10019000981908800020DFF88C1908800020DFF80B
:1001A000A41B087001BDDFF88419097811F0F00173
:1001B000102946D1DFF86C19097811F00C010829D3
:1001C00016D0DFF86019097811F0030102290FD069
:1001D000DFF85019098811F44051B1F5005F07D0DC
:1001E000DFF84019098811F44061B1F5006F10D1B2
:1001F000DFF83019098851F40071DFF828291180DF
:100200005121DFF8082A11705521DFF8382B1170C1
:1002100017E0DFF8F819097811F0F001502910D132
:10022000DFF8201B097855290BD1DFF8F818098869
:1002300051F48071DFF8EC2811805021DFF8CC29CF
:100240001170DFF8E818097811F0F001202938D191
:10025000DFF8D018098811F44051B1F5005F07D0DC
:10026000DFF8C018098811F44061B1F5006F10D1B2
:10027000DFF8B018098851F40071DFF8A828118060
:100280005121DFF8882911705521DFF8B82A117043
:1002900017E0DFF87819097811F0F001502910D132
:1002A000DFF8A01A097855290BD1DFF878180988EA
:1002B00051F48071DFF86C2811805021DFF84C294F
:1002C0001170DFF86818097811F0F00130293FD17A
:1002D000DFF85018098811F44051B1F5005F0ED0D5
:1002E000DFF84018098811F44061B1F5006F06D0BD
:1002F000DFF83018097811F00C01082910D1DFF867
:100300002418098851F40071DFF818281180512150
:10031000DFF8F82811705521DFF8282A117017E04E
:10032000DFF8E818097811F0F001502910D1DFF852
:10033000141A097855290BD1DFF8E817098851F408
:100340008071DFF8E02711805021DFF8C02811709C
:10035000DFF8D817097811F0F001402940F08B80C0
:10036000DFF8C817097811F00F01012906D0DFF86E
:10037000BC17097811F00F01022939D1DFF8A41751
:10038000098811F44051B1F5005F07D0DFF89417E8
:10039000098811F44061B1F5006F10D1DFF88417BE
:1003A000098851F40071DFF87C2711805121DFF8B2
:1003B0005C2811705521DFF88C2911705BE0DFF8A3
:1003C0004C18097811F0F001502954D1DFF8741954
:1003D000097855294FD1DFF84C17098851F48071FD
:1003E000DFF8402711805021DFF82028117042E00B
:1003F000DFF83017098811F44051B1F5005F0AD0D9
:10040000DFF82017098840F60C42114040F604023C
:10041000914218D106E0DFF80C17097811F00C01B1
:10042000042910D1DFF8FC16098851F40071DFF8B7
:10043000F42611805121DFF8D42711705521DFF8FF
:100440000429117017E0DFF8C417097811F0F001E2
:10045000502910D1DFF8EC18097855290BD1DFF8B5
:10046000C416098851F48071DFF8B8261180502134
:10047000DFF898271170DFF894170978512925D0F3
:10048000DFF888170978C90710D5DFF898160988AA
:100490004FF6FF421140080050F40071DFF8842647
:1004A00011805521DFF89C2811700FE0DFF87416D9
:1004B00009884FF6FF421140080050F48071DFF8C0
:1004C000642611805521DFF87C2811707047DFF811
:1004D00078080088DFF874180978401ADFF8701877
:1004E0000988884209DB41F20940DFF838160880A4
:1004F0005520DFF85018087010E0DFF85408008825
:10050000DFF844180988884208D341F20540DFF833
:10051000141608805520DFF82C1808707047DFF893
:1005200028080088DFF824180978401ADFF8201816
:100530000988884249DBDFF810080088DFF81418C2
:100540000978401ADFF808180988884214DBDFF8B8
:1005500008080078AA2809D141F20A40DFF8C4153A
:1005600008805520DFF8F417087015E041F20940C3
:10057000DFF8B01508800FE0DFF8E00700785528B5
:1005800005D141F20A40DFF89C15088004E041F2F1
:100590000940DFF890150880DFF8BC070078AA282A
:1005A0000ED0DFF8B4070078552809D0DFF8B0077F
:1005B0000068DFF8B01708605520DFF89C17087056
:1005C0005520DFF8801708701CE0DFF884070088EA
:1005D000DFF874170988884214D341F20540DFF828
:1005E000441508800020DFF8741708700020DFF839
:1005F000681708705520DFF84C1708700020DFF8E6
:10060000001A08707047DFF848070088DFF81019F3
:100610000988DFF8382712785118884209DB42F23E
:100620000540DFF8001508805520DFF8181708701E
:1006300010E0DFF8EC080088DFF81417098888421A
:1006400008D341F20540DFF8DC1408805520DFF8BC
:10065000F41608707047DFF8F8060088DFF8C01855
:100660000988DFF8E8261278511888424EDBDFF857
:10067000E0060088DFF8A8180988DFF8D826127885
:100680005118884214DBDFF878090078AA2809D1CC
:1006900042F60500DFF88C1408805520DFF8BC1600
:1006A000087015E042F20540DFF8781408800FE08A
:1006B000DFF8A8060078552805D142F60500DFF8D6
:1006C0006414088004E042F20540DFF85814088002
:1006D000DFF82C090078AA2813D0DFF82409007865
:1006E00055280ED0DFF81C090078012809D1DFF861
:1006F00070060068DFF8101908605520DFF800194F
:1007000008705520DFF83C1608701CE0DFF8100870
:100710000088DFF83C160988884214D341F205406E
:10072000DFF8001408800020DFF830160870002081
:10073000DFF8CC1808705520DFF808160870002084
:10074000DFF814160870704780B50020DFF8D41366
:100750000880DFF80C090078012802D1FFF7DFFEDE
:1007600007E00020DFF8F01508700020DFF8D4154E
:10077000087001BD80B50020DFF8A8130880DFF8FD
:10078000E0080078022802D1FFF765FF03E00020AF
:10079000DFF8B015087001BD80B50020DFF88413C4
:1007A0000880DFF8BC080078012804D10120DFF8B8
:1007B0001019087024E0DFF8A8080078022804D196
:1007C0000220DFF8FC1808701AE0DFF894080078BF
:1007D000032811D1DFF878050088DFF86C15098847
:1007E000884204D20120DFF8D818087008E00220FF
:1007F000DFF8CC18087003E00020DFF84815087017
:10080000DFF8BC080078012802D1FFF760FE0BE09A
:10081000DFF8AC080078022802D1FFF7F4FE03E00D
:100820000020DFF82015087001BD80B50020BD490B
:100830000880DFF82C080078012804D10120DFF8B7
:100840008018087024E0DFF818080078022804D126
:100850000220DFF86C1808701AE0DFF8040800784E
:10086000032811D1DFF8E8040088DFF8DC140988D8
:10087000884204D20120DFF84818087008E00220FE
:10088000DFF83C18087003E00020DFF8B8140870A7
:10089000DFF82C080078012802D1FFF740FE0BE0BA
:1008A000DFF81C080078022802D1FFF7ACFE03E055
:1008B0000020DFF89014087001BD80B50020994930
:1008C0000880DFF89C070078012804D10120DFF8B8
:1008D000F017087024E0DFF888070078022804D1B8
:1008E0000220DFF8DC1708701AE0DFF874070078E0
:1008F000032811D1DFF858040088DFF84C14098868
:10090000884204D20120DFF8B817087008E00220FE
:10091000DFF8AC17087003E00020DFF82814087037
:10092000DFF89C070078012802D1FFF7D0FD0BE02B
:10093000DFF88C070078022802D1FFF78CFE03E075
:100940000020DFF80014087001BD80B50020754953
:100950000880DFF80C070078012804D10120DFF8B7
:100960006017087024E0DFF8F8060078022804D148
:100970000220DFF84C1708701AE0DFF8E406007870
:10098000032811D1DFF8C8030088DFF8BC130988F9
:10099000884204D20120DFF82817087008E00220FE
:1009A000DFF81C17087003E00020DFF898130870C8
:1009B000DFF80C070078012802D1FFF7B0FD0BE04B
:1009C000DFF8FC060078022802D1FFF744FE03E0BE
:1009D0000020DFF87013087001BDDFF86C03008899
:1009E000DFF868130978401ADFF864130988884231
:1009F00008DB42F260404B4908805520DFF8441381
:100A000008700FE0DFF848030088DFF83C1309881E
:100A1000884207D34FF4A350424908805520DFF89D
:100A2000241308707047DFF828030088DFF8F014FB
:100A30000988C64A12785118884207DB42F2904072
:100A4000384908805520BF4908700DE0DFF8D00410
:100A50000088BF490988884206D341F29040314955
:100A600008805520B74908707047B7480088B749D3
:100A70000978401AB6490988884239DBB2480088AB
:100A8000B4490978401AB2490988884210DBB24853
:100A90000078AA2807D142F6600022490880552034
:100AA000AE49087011E042F260401E4908800CE037
:100AB000AA480078552804D142F6600019490880F8
:100AC00003E042F2604017490880A3480078AA2852
:100AD0000AD0A1480078552806D0A1480068A1494D
:100AE000086055209C49087055209649087016E00A
:100AF0009748008894490988884210D34FF4A3503E
:100B00000849088000209549087000209249087023
:100B100055208C4908700020DFF8E41408707047F5
:100B2000000801402A23002028230020562300200B
:100B300087480088DFF8E8130988844A127851183A
:100B4000884248DB82480088DFF8D4130988814A4C
:100B500012785118884213DBDFF8A4040078AA2821
:100B600008D142F69000DFF85419088055207B49DF
:100B7000087014E042F29040DFF8401908800EE05F
:100B800076480078552805D142F69000DFF82C19F8
:100B9000088004E042F29040DFF820190880DFF876
:100BA00060040078AA2812D0DFF854040078552891
:100BB0000DD0DFF850040078012808D1684800689B
:100BC000DFF8441408605520DFF83414087055200D
:100BD0005C49087018E0D24800885D49098888425D
:100BE00012D341F29040DFF8D418088000205B490E
:100BF00008700020DFF8081408705520514908706B
:100C00000020DFF84C1B0870704700005E230020B6
:100C10004D4909884D4A1278891A4D4A12889142E5
:100C20003BDB49490988DFF898281278891A484A35
:100C30001288914208DB42F26841DFF88028118077
:100C40005521464A11700EE044490978552905D1CD
:100C500042F26841DFF86428118004E042F2644106
:100C6000DFF858281180DFF85C1809881E2904DB9A
:100C7000DFF85018098809040BD5DFF840180988F7
:100C80004FF6F3721140080050F00801DFF82C28ED
:100C9000118055212B4A117010E02D4909882A4AEC
:100CA000128891420AD341F26441DFF81028118082
:100CB00000212A4A11705521224A1170DFF8781A52
:100CC0000978012904D0DFF88C1A0978012910D19C
:100CD00041F26841DFF8E42711800121DFF8582A4A
:100CE00011705521DFF86C2A11705521DFF8682A40
:100CF000117070471648008889490988134A12788C
:100D00005118884209DB42F29440DFF8B01708809E
:100D10005520DFF8481A087011E0814800880C4916
:100D2000098888420BD341F29440DFF8901708807D
:100D300000200A4908705520DFF8201A0870704713
:100D4000001001406B2300201A23002062230020A2
:100D500032230020642300206E2300206C23002017
:100D6000C8220020D8220020DFF8F4190988DFF813
:100D7000F4291278891ADFF8F02912889142C0F21A
:100D80009780DFF8DC190988DFF8E0291278891AE2
:100D9000DFF8D4291288914240DBDFF8C4190988B2
:100DA000DFF81C271278891ADFF8BC2912889142D3
:100DB00014DBDFF89C190978AA2909D142F66801E9
:100DC000DFF8F8261180AA21DFF8A429117040E08D
:100DD00042F26841DFF8E42611803AE0DFF870194A
:100DE0000978AA2914D1DFF888190978AA2905D128
:100DF00042F66801DFF8C42611802AE042F6640159
:100E0000DFF8B82611805521DFF86429117020E041
:100E100042F26441DFF8A42611801AE0DFF850198D
:100E20000978AA2905D142F66801DFF890261180D9
:100E30000FE0DFF83C190978552905D142F6640125
:100E4000DFF87826118004E042F26441DFF86C2676
:100E50001180DFF8FC18097855290ED0DFF8F0185A
:100E60000978AA2909D0DFF80C190968DFF80829E0
:100E700011605521DFF8D8281170DFF8481609886D
:100E80001E2904DBDFF83C16098809040BD5DFF8BE
:100E90002C1609884FF6F3721140080050F0080133
:100EA000DFF8182611805521DFF8B02811701BE0FB
:100EB000DFF8B4180988DFF8A8281288914213D304
:100EC00041F26441DFF8F42511800021DFF8A02809
:100ED00011700021DFF8782811705521DFF87C2887
:100EE00011700021464A1170DFF84C180978012969
:100EF00004D0DFF860180978012910D141F2684167
:100F0000DFF8B82511800121DFF82C281170552158
:100F1000DFF8402811705521DFF8582A117070470A
:100F200018230020DFF840080088DFF84C1A0988F1
:100F3000DFF8302812785118884244DBDFF828089F
:100F40000088DFF8341A0988DFF820281278511851
:100F5000884213DB2A480078AA2805D142F694007B
:100F6000DFF85815088019E042F29440DFF84C157C
:100F700008805520DFF8F81708700FE0DFF8F00759
:100F80000078552805D142F69400DFF83015088026
:100F900004E042F29440DFF82415088018480078F5
:100FA00055280BD016480078AA2807D0DFF8C407C8
:100FB0000068154908605520114908705520DFF870
:100FC0009C1708701BE0DFF8B0090088DFF898175D
:100FD0000988884213D341F29440DFF8E014088076
:100FE0000020DFF88C170870002005490870552094
:100FF000DFF8681708700020DFF854170870704792
:101000006F23002070230020DC22002080B5002008
:10101000DFF8A814088012480078012802D1FFF7F1
:10102000DCFC1CE00E480078022802D1FFF7FBFC34
:1010300015E00B48007803280DD1DFF82C07008855
:10104000DFF81C170988884202D2FFF7C6FC06E0C9
:10105000FFF7E9FC03E00020DFF80017087001BD8E
:101060005B23002080B50020DFF850140880DFF8F3
:101070000C090078012802D1FFF7F7FC1EE0DFF829
:10108000FC080078022802D1FFF752FD16E0DFF8D5
:10109000EC08007803280DD1DFF8CC060088DFF8D3
:1010A000C0160988884202D2FFF7DFFC06E0FFF78E
:1010B0003FFD03E00020DFF8A416087001BD00002A
:1010C0007A23002080B50020DFF8F0130880DFF8D5
:1010D000AC080078012802D1FFF79AFD1EE0DFF886
:1010E0009C080078022802D1FFF704FE16E0DFF822
:1010F0008C08007803280DD1DFF86C060088DFF833
:1011000060160988884202D2FFF782FD06E0FFF7E9
:10111000F1FD03E00020DFF84416087001BD80B542
:101120000020DFF898130880DFF8500800780128C5
:1011300002D1FFF719FE1EE0DFF840080078022810
:1011400002D1FFF7EFFE16E0DFF830080078032841
:101150000DD1DFF814060088DFF8041609888842EC
:1011600002D2FFF701FE06E0FFF7DCFE03E00020FD
:10117000DFF8E815087001BD10B50400DFF8D005F0
:101180000078552813D1E4B2210089B2DFF8E805D0
:10119000006800F09CFDAA2809D1DFF8D805006896
:1011A000DFF8D4150860AA20DFF8A415087010BD78
:1011B00010B50400DFF8C8070078552813D1E4B251
:1011C000210089B2DFF8BC07006800F080FDAA2882
:1011D00009D1DFF8A0050068DFF8A8170860AA2089
:1011E000DFF89C17087010BD38B50400B3480088BC
:1011F00010F44050B0F5005F09D1DFF88C0700789B
:1012000000281AD10120DFF88017087015E0AB48DC
:10121000008810F44050B0F5805F0ED1DFF8680709
:101220000078012809D15520DFF85C170870DFF835
:1012300044050068DFF854170860DFF84C070078B1
:1012400055281ED19D4800884CF6FF7108400500C6
:1012500055F48050994908800020DFF8F414087094
:101260000020DFF81C170870210089B2DFF81C0786
:10127000006800F02CFDAA2803D10020DFF8081731
:10128000087031BD38B504008C48008810F4406007
:10129000B0F5006F09D1DFF8F806007800281AD100
:1012A0000120DFF8EC16087015E08448008810F47F
:1012B0004060B0F5806F0ED1DFF8D40600780128C9
:1012C00009D15520DFF8C8160870DFF8A8040068B7
:1012D000DFF8C0160860DFF8B8060078552816D188
:1012E000764800884FF2FF310840050055F48060D1
:1012F00072490880210089B2DFF89806006800F082
:10130000E6FCAA2803D10020DFF88416087031BD5E
:1013100080B5DFF884060078112804D0DFF878065D
:101320000078212803D10620FFF726FFC4E0DFF86C
:1013300068060078122804D0DFF85C0600782228BE
:1013400009D10620FFF734FF7820FFF74DFF782002
:10135000FFF798FFB0E0DFF840060078132804D0CC
:10136000DFF834060078232803D17820FFF73CFF0C
:10137000A2E0DFF824060078142804D0DFF818066D
:101380000078242809D10620FFF712FF7820FFF704
:101390002BFF7820FFF776FF8EE0DFF8FC05007862
:1013A000152804D0DFF8F005007825280BD1062099
:1013B000FFF7E2FEDFF8E405007802287CD1782010
:1013C000FFF712FF78E0DFF8D0050078162804D088
:1013D000DFF8C4050078262811D10620FFF7CCFEDF
:1013E0000620FFF7E5FEDFF8B4050078022863D198
:1013F0007820FFF7F9FE7820FFF744FF5CE0DFF884
:1014000098050078312804D0DFF88C050078412851
:1014100006D17820FFF7E8FE7820FFF733FF4BE096
:10142000DFF874050078322804D0DFF86C05007806
:1014300042280CD10620FFF79FFE0620FFF7B8FEDA
:101440007820FFF7D1FE7820FFF71CFF34E0DFF8AB
:1014500048050078332803D17820FFF7C5FE2BE03C
:10146000DFF83405007834280CD10620FFF784FE1D
:101470000620FFF79DFE7820FFF7B6FE7820FFF7E5
:1014800001FF19E0DFF810050078432803D1782028
:10149000FFF7AAFE10E0DFF80005007844280BD122
:1014A0000620FFF769FE0620FFF782FE7820FFF78F
:1014B0009BFE7820FFF7E6FE01BD00002A230020F6
:1014C000662300200823002070B40021DFF8AC441C
:1014D0002478002C20D0DFF8A4442478042C1BDAD4
:1014E000DFF898442478641E2300DBB20724DFF879
:1014F000B0542D7804FB0353DFF8A84424783C252E
:10150000DFF8A464367805FB04642200DFF86C443D
:101510002478032C13D100E0FBE0DFF8904424880A
:101520000A2594FBF5F4DFF850542C80DFF8804452
:1015300024880A2594FBF5F4894D2C8010E0DFF80F
:10154000744424880A2594FBF5F4DFF82C542C808D
:10155000DFF8644424880A2594FBF5F4804D2C8040
:1015600000242000C0B2062810DADFF85044DBB2B5
:101570001A2505FB0344C0B214EB80046488B4F55B
:10158000B46F03DC441C2100401CEBE70024200066
:10159000C0B2C9B2884280F0BC80C0B2441CC9B29B
:1015A0008C4266DADFF81444DBB21A2505FB0344EB
:1015B000C0B214EB8004648892B2A242C0F0A7804B
:1015C000DFF8F843DBB21A2505FB0344C0B214EB85
:1015D0008004E48892B2A24280F09980DFF8E04370
:1015E0002488DFF8D853DBB21A2606FB0355C0B2B5
:1015F00015EB80056D88AC4232D2DFF8C043DBB218
:101600001A2505FB0344C0B214EB800464790A2553
:101610006C43DFF864532C80DFF8A043DBB21A255B
:1016200005FB0344C0B214EB800424790A256C4303
:101630004B4D2C800124DFF88C532C70DFF888434D
:101640002478552C63D00424DFF880532C70AA240E
:10165000DFF87C532C705524DFF86C532C7056E067
:101660000024DFF860532C700024DFF85C532C70EA
:101670004DE0DFF84843DBB21A2505FB0344C0B256
:1016800014EB8004648892B2A24240D3DFF8304366
:101690002488DFF82853DBB21A2606FB0355C0B2B4
:1016A00015EB80056D88AC422BD2DFF81043DBB21E
:1016B0001A2505FB0344C0B214EB800464790A25A3
:1016C0006C43AD4D2C80BD4CDBB21A2505FB0344A9
:1016D000C0B214EB800424790A256C43204D2C8081
:1016E0000124B84D2C70B84C2478552C0FD004240C
:1016F000B64D2C70AA24B64D2C705524B24D2C70CA
:1017000005E00024AF4D2C700024AF4D2C70401C20
:101710003EE770BC7047AF49097811F00C01082909
:1017200009D1AC4909884CF2FF321140080050F44D
:10173000A051A84A1180704774230020002004495A
:10174000087000208E490870002009490870704711
:101750006E230020692300206A2300206B230020D1
:101760001A2300206223002032230020642300205B
:101770006C230020C8220020D822002080B5002041
:101780008649087000207B4908709348007801283A
:1017900003D100209149088003E0914800888F49D7
:1017A0000880FFF791FE8F480078552804D1FFF795
:1017B000C5FF00208B4908707748007810F0F000D2
:1017C000102829D174480078112802D1FEF7BCFFF7
:1017D00099E071480078122802D1FEF7CBFF92E021
:1017E0006D480078132802D1FEF7D6FF8BE06A48D7
:1017F0000078142802D1FFF760F884E0664800788A
:10180000152802D1FFF711F87DE06348007816280B
:1018100079D1FFF79AF876E05F48007810F0F00091
:10182000202829D15C480078212802D1FEF78CFFBE
:1018300069E059480078222802D1FEF79BFF62E058
:1018400055480078232802D1FEF7A6FF5BE05248F6
:101850000078242802D1FFF730F854E04E48007891
:10186000252802D1FEF7E1FF4DE04B4800782628FD
:1018700049D1FFF76AF846E04748007810F0F000D9
:1018800030281BD144480078312802D1FFF7BEFB35
:1018900039E041480078322802D1FFF7E3FB32E01B
:1018A0003D480078332802D1FFF70CFC2BE03A4882
:1018B0000078342827D1FFF732FC24E0364800783E
:1018C00010F0F00040281ED133480078412802D1A2
:1018D000FFF79CFB17E030480078422802D1FFF761
:1018E000C1FB10E02C480078432804D1FFF7EAFB45
:1018F000FFF711FF07E028480078442803D1FFF7DD
:101900000EFCFFF708FF38480078002805D141F2A7
:10191000554030490880FFF711FFFFF7F9FC1548E3
:101920000078002805D10020304908700020304997
:101930000870FEF738FC2F4800882649098888423D
:1019400006D02D4800882D49088055202C49087064
:101950002B480078552802D1FEF70BFC09E0002047
:101960001C4908801B480088FEF7E8FB0020254939
:10197000087001BD6A230020182300205B2300208B
:101980006F230020DC22002070230020E0220020B2
:1019900071230020E4220020562300207A23002017
:1019A0003E23002040230020412300202423002048
:1019B000262300201C2300201E230020C81D0020F9
:1019C0002E23002072230020732300204C230020AC
:1019D0004B2300202A23002048230020322300200C
:1019E000022300205C2300205A23002074230020BF
:1019F0006923002028230020FA2200202C23002025
:101A00006D2300206B230020F0B500270022002367
:101A100000240025002691F803C01CF00F0C674637
:101A200091F803C05FEACC6C03D591F802C05CEA80
:101A3000070791F800C05FEA0C6C3AD0D0F800C0FC
:101A400065465FF0000C6346082B31D25FF0010C55
:101A50001CFA03FC6446B1F800C014EA0C0C6246A0
:101A6000A24223D15FEA830C64465FF00F0C1CFA9C
:101A700004FC6646B54317FA04FC5CEA050591F8D8
:101A800003C0BCF1280F06D15FF0010C1CFA03FC67
:101A9000C0F814C00AE091F803C0BCF1480F05D1AA
:101AA0005FF0010C1CFA03FCC0F810C05B1CCBE714
:101AB0000560B1F800C0BCF1FF0F3FDDD0F804C0F5
:101AC00065465FF0000C6346082B36D25FF0010CD0
:101AD00013F1080E1CFA0EFC6446B1F800C014EABB
:101AE0000C0C6246A24226D15FEA830C64465FF08A
:101AF0000F0C1CFA04FC6646B54317FA04FC5CEABA
:101B0000050591F803C0BCF1280F07D15FF0010C67
:101B100013F1080E1CFA0EFCC0F814C091F803C0B3
:101B2000BCF1480F07D15FF0010C13F1080E1CFA4D
:101B30000EFCC0F810C05B1CC6E74560F0BD02009B
:101B40000020936889B20B4202D00123180001E003
:101B500000231800C0B27047D2B2002A02D089B266
:101B6000016101E089B241617047F0B400220023B5
:101B700000250024002803D5324E3668350002E0E7
:101B8000314E36683500C0F30346340086B2320069
:101B900010F44016B6F5401F08D135F070652A4E96
:101BA000366836F07066284F3E6010E0C60206D5F3
:101BB0000326A64033009D4355F0706507E0460DAF
:101BC000F6B2360112FA06F6B54355F07065C9B2A1
:101BD000002905D0460DF6B2360112FA06F6354355
:101BE000002802D5174E356001E0174E3560F0BC75
:101BF000704730B400220F2311F00304E4B2A400B4
:101C0000A3401A00114BC9B28C1053F824309343EF
:101C10000E4CC9B28D1044F825300C4BC9B28C1053
:101C200053F82430C0B211F00304E4B2A40010FA57
:101C300004F42343054CC9B28D1044F8253030BC60
:101C4000704700001C0001400400014008000140F2
:101C500010B4274B1B88190000231A0092B280B2DF
:101C6000824211D2224B1B8889B28B4204D3204B73
:101C70001B885B1A1A00F1E74FF6FF735B1A1C4CC6
:101C80002488E3181A00E9E710BC704778200100A7
:101C9000481E0029FBD1704710B4020092B289B2ED
:101CA000881804001248008892B2904205D2104869
:101CB000008810F58030030002E00D480088030022
:101CC0009C4201D2AA2000E0552010BC704710B4FD
:101CD000020089B2881804000648006803009C428C
:101CE00001D2AA2000E0552010BC7047000000007F
:101CF000FA220020C822002070B402004FF6FF76BE
:101D000030004AF20106330000263400C9B28C428A
:101D100013D2A65C704000263500082D0BD2C607F2
:101D200004D540084004400C584002E040084004FC
:101D3000400C6D1CF1E7641CE8E770BC704710B400
:101D4000DFF8E8351B881A00002319000300DBB216
:101D500089B29BB299420DD292B2002A01D0521E92
:101D600001E0FF231A000023DFF8C44592B21355A7
:101D7000491CEBE7002319000300DBB289B29BB2D8
:101D8000994206D20023DFF8AC4589B20B55491CB5
:101D9000F2E710BC704738B50400AA20DFF89815A8
:101DA00008705520DFF8901548700120DFF888157D
:101DB00088700620DFF88015C8702078DFF8781565
:101DC00008716078DFF870154871A078DFF8681541
:101DD0008871E078DFF86015C8710821DFF85805D0
:101DE000FFF78AFF0500DFF850050572ADB2280A3B
:101DF000DFF8441548720A20DFF840150880AA2051
:101E0000DFF83C15087031BD38B50400AA20DFF8B2
:101E1000281508705520DFF8201548700120DFF8DC
:101E2000181588701020DFF81015C8702078DFF8BA
:101E3000081508716078DFF800154871A078DFF8A0
:101E4000F8148871E078DFF8F014C8710821DFF821
:101E5000E804FFF751FF0500DFF8DC040572ADB2BE
:101E6000280ADFF8D41448720A20DFF8D01408805A
:101E7000AA20DFF8CC14087031BD10B5AA20DFF815
:101E8000B81408705520DFF8B01448700120DFF84E
:101E9000A81488704120DFF8A014C8704020DFF833
:101EA000981408710020DFF8901448710020DFF8C2
:101EB000881488710120DFF88014C8710821DFF8C8
:101EC0007804FFF719FF0400DFF86C040472A4B271
:101ED000200ADFF8641448720A20DFF860140880D2
:101EE000AA20DFF85C14087010BD10B5AA20DFF836
:101EF000481408705520DFF8401448700120DFF8BE
:101F0000381488704220DFF83014C8704020DFF8A1
:101F1000281408710120DFF8201448710020DFF830
:101F2000181488710120DFF81014C8710821DFF837
:101F30000804FFF7E1FE0400DFF8FC030472A4B21A
:101F4000200ADFF8F41348720A20DFF8F013088043
:101F5000AA20DFF8EC13087010BD10B5AA20DFF836
:101F6000D81308705520DFF8D01348700120DFF82F
:101F7000C81388704320DFF8C013C8704020DFF812
:101F8000B81308712020DFF8B01348710020DFF883
:101F9000A81388715420DFF8A013C8710821DFF856
:101FA0009803FFF7A9FE0400DFF88C030472A4B2C3
:101FB000200ADFF8841348720A20DFF880130880B3
:101FC000AA20DFF87C13087010BD10B5AA20DFF836
:101FD000681308705520DFF8601348700120DFF89F
:101FE000581388704320DFF85013C8701820DFF8AA
:101FF000481308710020DFF840134871DFF84403EC
:102000000078DFF8341388710020DFF82C13C871D2
:10201000DFF834030078C00704D50220DFF8181376
:10202000087203E00120DFF8101308720020DFF8C7
:1020300008134872DFF814030078DFF8FC12887286
:102040000020DFF8F412C872DFF804030078DFF82C
:10205000E81208730020B8494873DFF8F8020078E6
:10206000B5498873DFF8F002008880B2000AB249EF
:10207000C873B9480088B0490874B8480078002887
:1020800004D0B74880884042040002E0B448808809
:102090000400A4B2200AA8494874A7488474002008
:1020A000A549C874AF480088A3490875AE480088A0
:1020B00080B2000AA0494875AB4800889E498875DF
:1020C00000209D49C875A94800789B490876A84812
:1020D000008880B2000A98494876A5480088964949
:1020E0008876A448008880B2000A9349C876A1483F
:1020F000008891490877A0480078012839D195488F
:10210000007801280BD19D4800880A21484304002B
:10211000A4B2200A8849C8738748047429E08D480E
:10212000007802280BD1964800880A214843040011
:10213000A4B2200A804948767F48847619E0854811
:102140000078032815D18D4800880A2148430400EF
:10215000A4B2200A78494875774884758848008871
:102160000A2148430400A4B2200A7349C876724881
:1021700004771D217048FFF7BFFD04006E484477C7
:10218000A4B2200A6C4988771F206C490880AA20D5
:102190006B49087010BD10B5AA206749087055201A
:1021A0006549487001206449887044206249C870BC
:1021B00012206149087100205F4948717148007818
:1021C0005D49887100205C49C8716F4800785A49A0
:1021D00008720020584948726C4800785649887245
:1021E00000205549C8726A48007853490873002096
:1021F00051494873674800784F49887300204E4919
:10220000C873654800784C490874644800883030C9
:1022100049494874624800784749887461480078A1
:102220004549C87460480078434908755F4800789C
:10223000414948755E4800783F49887500203E490D
:10224000C8755C4800783C49087619213A48FFF780
:1022500053FD040038484476A4B2200A36498876F3
:102260001B2036490880AA203549087010BD10B5DA
:10227000AA203149087055202F49487001202E4965
:10228000887045202C49C87040202B4908710F20C8
:102290002949487100202849887101202649C871C0
:1022A00008212548FFF728FD040023480472A4B242
:1022B000200A214948720A2020490880AA20204982
:1022C000087010BD10B5AA201B49087055201A4986
:1022D000487001201849887046201749C87040206E
:1022E000154908710E20144948710020124988715F
:1022F00031480078002803D100200F49C87102E05E
:1023000001200D49C87108210B48FFF7F5FC0400B6
:1023100009480472A4B2200A074948720A200749F2
:102320000880AA200649087010BD0000A0220020E5
:10233000C8150020EC20002000000020B82200205A
:10234000C42200205A2300205E23002060230020A6
:10235000562300205B2300201E230020482300205A
:102360005022002004230020262300205723002091
:102370001C23002024230020722300201A23002085
:1023800018230020682300206323002065230020F9
:10239000672300205423002074230020F42200200F
:1023A0003D2300203F230020402300204123002024
:1023B0004223002055230020582300202DE9F84F08
:1023C0004FF4005001F0D9F8002807D00020DFF8C2
:1023D000D81D08704FF4005001F0E4F8DFF8C80D84
:1023E0000078002840F09987DFF8C00D0088DFF8FA
:1023F000C01D0988884200F0BE80DFF8B80D007863
:10240000552851D1DFF8B00D0088DFF8B01D0880E5
:10241000DFF8980D00880400DFF8940D00880500AF
:10242000A4B2ADB2AC4204D214F58070401B824617
:1024300001E0601B82462E00B6B21FFA8AFAADB2E6
:1024400015EB0A0086422FDADFF8740DDFF8601D05
:102450000988085CAA2817D1DFF8540D0088401CB1
:10246000C0B28046A4B21FFA88F844451CD0DFF8F9
:10247000500D1FFA88F818F80000552804D1AA203A
:10248000DFF8301D08700FE0DFF8240D0088401CD5
:10249000DFF81C1D0880DFF8180D0078C0B2DFF8E7
:1024A000101D0880761CC7E7DFF8080D0078AA2801
:1024B00061D1DFF8F80C00880400DFF8F40C008824
:1024C000A4B2844207D214F58070DFF8E41C0988B6
:1024D000401A824604E0DFF8D80C0088201A8246B1
:1024E0001FFA8AFABAF1060F45DBDFF8C40C008840
:1024F000C01CC0B28146DFF8C80C1FFA89F919F870
:102500000000032807D0DFF8B80C1FFA89F919F882
:10251000000006280DD11FFA8AFABAF10A0F2ADB49
:102520005520DFF8901C0870AA20DFF8981C08706E
:1025300023E0DFF88C0C1FFA89F919F80000102845
:1025400019D1DFF86C0C00880830C0B20400DFF845
:10255000700CA4B2205C0B3005001FFA8AFAADB2F1
:10256000AA4508D35520DFF84C1C0870AA20DFF8D4
:10257000541C087001E000F043BEDFF8480C0078FE
:10258000AA2840F03D865520DFF8381C0870AA20A4
:10259000DFF88C1D0870DFF8180C0088C01CC0B272
:1025A0008346DFF81C0C1FFA8BFB1BF80000032886
:1025B00007D0DFF80C0C1FFA8BFB1BF80000062875
:1025C00056D1DFF8EC0B00880A308146DFF8E00BCB
:1025D00000880600B6B21FFA89F94E4520D2B6B27D
:1025E000FF2E0CDCDFF8D80BB6B2305CDFF8341D00
:1025F000B6B2DFF8BC2B1288B21A50540EE0DFF8E6
:10260000C00BB6B23018B0F580700078DFF8141D3A
:10261000B6B2DFF89C2B1288B21A5054761CD9E758
:10262000DFF88C0B00880A30DFF8841B0880DFF8A5
:10263000800B0078C0B2DFF8781B08800821DFF833
:10264000E40CFFF759FB81464846DFF8D81C097AAD
:10265000C0B288420AD11FFA89F95FEA1920DFF86F
:10266000C41C497AC0B2884200F09B8000F0DCBDF7
:10267000DFF84C0B1FFA8BFB1BF80000102840F012
:102680008080DFF82C0B00880830C0B28046DFF86D
:10269000300B1FFA88F818F80000DFF8141B0988BF
:1026A00008180B308146DFF8080B00880600B6B228
:1026B0001FFA89F94E4520D2B6B2FF2E0CDCDFF8A6
:1026C000000BB6B2305CDFF85C1CB6B2DFF8E02A73
:1026D0001288B21A50540EE0DFF8E40AB6B230188D
:1026E000B0F580700078DFF83C1CB6B2DFF8C02A85
:1026F0001288B21A5054761CD9E7DFF8B40A008861
:10270000DFF8BC1A1FFA88F818F801100B31081806
:10271000DFF89C1A0880DFF8980A0078C0B2DFF86A
:10272000901A0880DFF8980A1FFA88F818F8000055
:1027300010F10901C9B2DFF8EC0BFFF7DDFA8146B1
:102740004846DFF8E01BDFF8782A1FFA88F818F807
:1027500002205118497AC0B2884210D11FFA89F973
:102760005FEA1920DFF8BC1BDFF8542A1FFA88F84B
:1027700018F802205118897AC0B2884211D000F0AE
:1027800053BDDFF82C0A0088C01DDFF8241A08802A
:10279000DFF81C0A0078C0B2DFF8141A088000F0D5
:1027A00043BDDFF8800BC078062840F07B82DFF85D
:1027B000740B0079402805D1DFF8680B40790728B1
:1027C00000F01085DFF85C0B0079402805D1DFF8B8
:1027D000540B4079082800F00585DFF8480B007994
:1027E000402820D1DFF83C0B407902281BD1DFF8CC
:1027F000340BC079022880F2F584DFF8280BC07909
:10280000DFF8241B0870DFF8240BFFF7C4FADFF8A9
:10281000A8090088DFF8181B08805520DFF8141B72
:10282000087000F0DFBCDFF8FC0A007940283BD1DB
:10283000DFF8F00A4079032836D1DFF8E80AC079DA
:10284000DFF8F41A0870DFF8E40AFFF7A4FADFF8FB
:10285000E80A0078112804D0DFF8DC0A0078212883
:1028600004D10120DFF8D41A08700DE0DFF8C80A9F
:102870000078122804D0DFF8C00A0078222803D19B
:102880000220DFF8B81A0870DFF82C090088DFF89A
:10289000A01A08805520DFF89C1A08705520DFF830
:1028A000A01A087000F09EBCDFF8780A0079402872
:1028B00029D1DFF8700A4079142824D1DFF8640A9E
:1028C000C079092880F28E84DFF8580AC079DFF8D1
:1028D000741A0870DFF8700ADFF8481AC979085CC2
:1028E000DFF8681A0870DFF8440AFFF754FADFF8D7
:1028F000C8080088DFF8381A08805520DFF8341A35
:10290000087000F06FBCDFF81C0A0079402829D15C
:10291000DFF8100A4079152824D1DFF8080AC079B9
:10292000062880F25F84DFF8FC09C079DFF8201AFE
:102930000870DFF8200ADFF8EC19C979085CDFF8C5
:10294000181A0870DFF8E409FFF725FADFF86808BD
:102950000088DFF8DC1908805520DFF8D8190870E6
:1029600000F040BCDFF8BC090079402829D1DFF82D
:10297000B4094079162824D1DFF8A809C0790728BE
:1029800080F23084DFF89C09C079DFF8D019087034
:10299000DFF8CC09DFF88C19C979085CDFF8C419B5
:1029A0000870DFF88809FFF7F6F9DFF80C080088EF
:1029B000DFF87C1908805520DFF87819087000F0DE
:1029C00011BCDFF86009007940282CD1DFF85409E8
:1029D0004079002827D1DFF84C09C079022880F21D
:1029E0000184DFF84009C079002803D18020DFF896
:1029F00078190870DFF82C09C079DFF870190870B1
:102A00000020DFF86C190870DFF82009FFF7C3F920
:102A1000DFF8A4070088DFF8181908805520DFF8D0
:102A200014190870DEE3DFF8FC080079402819D19A
:102A3000DFF8F0084079172814D1DFF8E808C079EA
:102A4000DFF830190870DFF8E408FFF7A4F9DFF8C1
:102A500068070088DFF8D81808805520DFF8D418F8
:102A60000870BFE3DFF8BC080079402825D1DFF803
:102A7000B4084079182820D1DFF8A808C0790028C8
:102A800008D10020DFF8F01808700020DFF8EC18FB
:102A9000087003E00120DFF8E4180870DFF88C0804
:102AA000FFF779F9DFF810070088DFF8841808804D
:102AB0005520DFF88018087094E3DFF86808007983
:102AC000402826D1DFF85C084079012821D1DFF8C1
:102AD0009808007851280DD0DFF84808C0790228FE
:102AE00004D18120DFF88018087003E08020DFF82F
:102AF00078180870DFF83408FFF74DF9DFF8B806EA
:102B00000088DFF82C1808805520DFF82818087096
:102B100068E3DFF81008007940282AD1DFF80408BC
:102B200040790F2825D1DFF8FC0780790002DFF813
:102B300050180880DFF848080088DFF8E817C979DE
:102B40000818DFF83C180880DFF8E007FFF723F9E2
:102B5000DFF864060088DFF8D8170880DFF824085B
:102B60000068DFF8241808600120DFF820180870DA
:102B700038E3DFF8B007007940284AD1DFF8A4072E
:102B80004079102845D1DFF89C07C079012804D18D
:102B90000120DFF8FC17087030E0DFF88807C07903
:102BA000022804D15520DFF8E817087026E0DFF886
:102BB0007407C079032804D10020DFF8D417087007
:102BC0001CE0DFF86007C07904280ED10120DFF88F
:102BD000C41708700020DFF8C0170880DFF8D80598
:102BE0000088DFF8B817088008E0DFF83807C079F8
:102BF000052803D10120DFF898170870DFF82C07AB
:102C0000FFF7C9F8DFF8B0050088DFF8241708805F
:102C1000E8E2DFF810070079402822D1DFF8040746
:102C2000407911281DD1DFF8FC06C079012804D1B4
:102C30000120DFF85C17087008E0DFF8E806C079CB
:102C4000022803D10020DFF848170870DFF8DC06FF
:102C5000FFF7A1F8DFF860050088DFF8D4160880D8
:102C6000C0E2DFF8C0060079402840F0BB82DFF800
:102C7000B40640791C2840F0B582DFF8A806C07978
:102C8000DFF81C170870DFF8A406FFF784F8DFF8F8
:102C900028050088DFF8981608805520DFF894167C
:102CA00008709FE2DFF87C06C078102840F0688248
:102CB000DFF870060079402841D1DFF868064079D6
:102CC00019283CD1DFF85C06007A80461FFA88F8A4
:102CD000B8F1060F40F08682DFF84806407A10F51A
:102CE000FA60DFF8C0160880DFF83806807ADFF86F
:102CF000B8160870DFF82C06C07ADFF8B016087036
:102D0000DFF82006007BDFF8A8160870DFF814064D
:102D1000407BDFF8A0160870DFF80806807BDFF83C
:102D20009816087000F0DCFDDFF80006FFF76CF87D
:102D3000DFF884040088DFF8F815088052E2DFF835
:102D4000E4050079DFF8DC15497911EB0020040077
:102D5000A4B244F23000844269DBA4B244F27110A0
:102D6000844264DAA4B2DFF854060019102190FB03
:102D7000F1F00500DFF8AC05007A8046002007007E
:102D80001FFA88F8042098FBF0F0BFB287423BDAC4
:102D9000DFF82C06ADB21A2101FB0500BFB210EB23
:102DA0008700DFF88015BFB211EB8701497ADFF8A1
:102DB0007425BFB212EB8702927A12EB01210F2227
:102DC00051434180DFF8F805ADB21A2101FB05003F
:102DD000BFB210EB8700DFF84C15BFB211EB8701D3
:102DE000C97A0171DFF8D805ADB21A2101FB0500DF
:102DF000BFB210EB8700DFF82C15BFB211EB8701D3
:102E0000097B41717F1CBBE75520DFF8B415ADB2DB
:102E10001A2202FB05110870DFF81005FEF7F4FF17
:102E2000DFF894030088DFF808150880DAE1DFF89E
:102E3000F4040079402840F0D581DFF8E8044079B7
:102E4000042840F0CF81DFF8F4040078DFF8D414D0
:102E5000897A884242D0DFF8E0040078112804D053
:102E6000DFF8D404007821280DD1DFF8B804807A87
:102E7000012833D10120DFF8C41408705520DFF891
:102E8000C01408702AE0DFF8B0040078122804D0DB
:102E9000DFF8A404007822280DD1DFF88804807AB6
:102EA00002281BD10220DFF8941408705520DFF8A7
:102EB0009014087012E0DFF86C04807A04280DDAB0
:102EC000DFF86004807ADFF8741408700020DFF8FF
:102ED000A01408705520DFF868140870DFF8440467
:102EE000407A012840F03B81DFF850040078012847
:102EF0006DD1DFF83004C07ADFF82814097B11EBBC
:102F00000020DFF8C0140880DFF8B804008800F063
:102F1000A7FDDFF8B424DFF8B43400F0AFFD0022E1
:102F2000DFF8AC3400F08CFE00F0FEFEDFF8A414F5
:102F30000880DFF8A0040088642190FBF1F201FB17
:102F400012000400A4B2322C0ADBDFF888040088E7
:102F5000642190FBF1F0401CDFF87814088008E051
:102F6000DFF870040088642190FBF1F0DFF864144E
:102F70000880DFF850040088642190FBF1F201FB27
:102F800012000400A4B2322C0CDBDFF838040088F5
:102F9000642190FBF1F0642148433230DFF82414BF
:102FA00008800AE0DFF81C040088642190FBF1F03F
:102FB00064214843DFF80C1408800120DFF818145E
:102FC00008707D480088DFF8D4130880C4E0DFF87B
:102FD0006C03007802286CD1DFF84803407BDFF8EF
:102FE0004413897B11EB0020DFF8F0130880DFF831
:102FF000EC03008800F034FDDFF8CC23DFF8CC339D
:1030000000F03CFD0022DFF8C83300F019FE00F0AC
:103010008BFEDFF8CC130880DFF8C403008864213E
:1030200090FBF1F201FB12000400A4B2322C0ADB87
:10303000DFF8AC030088642190FBF1F0401CDFF85E
:10304000A013088008E0DFF898030088642190FB53
:10305000F1F0DFF88C130880DFF88003008864212A
:1030600090FBF1F201FB12000400A4B2322C0CDB45
:10307000DFF868030088642190FBF1F06421484385
:103080003230DFF8581308800AE0DFF85003008878
:10309000642190FBF1F064214843DFF8401308807D
:1030A0000120DFF83413087043480088BB490880CA
:1030B00052E0A248007803284ED19A48C07A994934
:1030C000097B11EB0020DFF81C130880C54800883D
:1030D000642190FBF1F201FB12000400A4B2322C37
:1030E0000ADBC0480088642190FBF1F0642148436A
:1030F0003230BC49088008E0BA480088642190FB5F
:10310000F1F064214843B74908808648407B8549EF
:10311000897B11EB0020B4490880B3480088642102
:1031200090FBF1F201FB12000400A4B2322C0ADB86
:10313000AD480088642190FBF1F0642148433230AF
:10314000A949088008E0A8480088642190FBF1F0B4
:1031500064214843A4490880552076490870734883
:10316000FEF752FE14480088714908809F48007895
:103170003C219F4A127801FB00209E49088031E0E3
:103180006848C07803282DD16648007940281BD1B3
:1031900064484079002817D1FEF717FF06480088D9
:1031A000634908801EE000BFC4220020982200204E
:1031B000A02200207B230020FA22002034230020BC
:1031C000C81500207C23002056480079402809D1EA
:1031D00054484079132805D1FEF7DDFF8648008862
:1031E0005349088001206B49087000206A49088013
:1031F00081480088694908805046C0B2FEF79FFDAB
:10320000FA217E480088FEF747FDAA280CD15520F8
:103210007B49087055207B490870774800887749BA
:103220000880AA203E49087077480078AA2874D1FF
:103230003B480078AA2870D164213D480088FEF7F9
:103240002BFDAA2869D17148007801280AD064D3DF
:10325000032821D013D3052838D02AD307284FD0EC
:1032600041D35AE0FEF709FE6348008830490880E0
:103270005520654908700020644908704DE0FEF74C
:1032800034FE5D4800882A49088055205E49087050
:1032900000205E49087040E0FEF75FFE5648008857
:1032A0002349088055205849087000205749087064
:1032B00033E0FEF78AFE504800881D4908805520FB
:1032C0005149087000205149087026E0FEF763FF5D
:1032D000494800881649088055204B49087000204D
:1032E0004A49087019E0FEF7C2FF434800881049B8
:1032F00008805520444908700020444908700CE0BB
:10330000FEF7E0FF3C4800880949088055203E4907
:10331000087000203D490870FFE7BDE8F18F00BF4D
:103320007D230020EC20002060230020F0200020DE
:103330003623002061230020562300205B23002039
:103340005C230020632300209405002062230020DA
:1033500065230020A00500206423002067230020AF
:10336000A8050020662300205E2300205A230020A9
:103370006C230020542300207423002069230020A4
:1033800008230020C8220020CC220020492300204E
:103390004D23002052230020122300201023002060
:1033A00055230020BA050020BC050020BD050020E3
:1033B000BE050020BF05002043230020D0BFFFFF33
:1033C000C81D00201E230020CDCCCCCCCCCCFC3F93
:1033D0000000A940222300205F2300201C2300209E
:1033E0002023002026230020242300204023002027
:1033F000412300202E230020FA2200203423002025
:103400007C2300207B2300204B2300204C23002022
:1034100001684FF6FE721140016000210160002139
:103420004160002181600021C1607149884206D15C
:103430007049096851F00F016E4A11606CE06E49E5
:10344000884206D16B49096851F0F001694A116060
:1034500062E06A49884206D16649096851F47061A0
:10346000644A116058E06649884206D1614909689A
:1034700051F470415F4A11604EE06249884206D1C2
:103480005C49096851F470215A4A116044E05E4970
:10349000884206D15749096851F47001554A1160B4
:1034A0003AE05A49884206D15249096851F07061A0
:1034B000504A116030E05649884206D155490968A2
:1034C00051F00F01534A116026E05349884206D15A
:1034D0005049096851F0F0014E4A11601CE04F4913
:1034E000884206D14B49096851F47061494A11601C
:1034F00012E04B49884206D14649096851F47041AF
:10350000444A116008E04749884205D141490968A9
:1035100051F470213F4A1160704710B400220368D3
:103520001A006FF30E128B680C6A23430C69234355
:103530004C6923438C692343CC6923434C6A23435E
:103540008C6A23431A430260CB6843600B68836034
:103550004B68C36010BC7047C9B2002904D0026830
:1035600052F00102026004E002684FF6FE731A4056
:1035700002607047406880B270470100002000225E
:10358000CB0003D5284B1B681A0002E0274B1B68B1
:103590001A000A4202D00123180001E0002318009B
:1035A000C0B27047C10002D51A49086001E0114954
:1035B00008607047010000200022CB0003D51A4BA1
:1035C0001B681A0002E0194B1B681A000A4202D05D
:1035D0000123180001E000231800C0B27047C100A9
:1035E00002D50C49086001E00249086070470000FC
:1035F00008000240040002401C000240300002406B
:1036000044000240580002406C000240800002402A
:1036100008040240040402401C040240300402403A
:1036200044040240580402400004024000000240EA
:103630002DE9F0470600089C099DB6B2B6F5FA6F71
:1036400003D15FF00008474609E0B6B2A6F2D17890
:103650005FF0040998FBF9F818F101084746B6B283
:10366000B6F5FA68B8EB0708C446B6B25FF00408CE
:1036700096FBF8F909FB1869B9F1000F17D04FF460
:10368000B77840F26D1909FB0CF908FB0798DFF8D1
:103690008492C9B219EB810959F8049C19EB080806
:1036A000D2B2B2F1010919EB0808C64616E04FF490
:1036B000B77840F26D1909FB0CF908FB0798DFF8A1
:1036C0005892C9B219EB810959F8049C19EB080802
:1036D000D2B2B2F1010919EB0808C646DFF83C8204
:1036E000DBB24FF46169E4B25FF03C0A0AFB04FA12
:1036F00009FB03A9EDB215EB090908FB0E9840463A
:10370000BDE8F087F0B403009BB2642693FBF6F6A5
:1037100034009BB2642693FBF6F706FB17363500A0
:10372000E4B2142C00DB6435EDB2EDB2042695FB57
:10373000F6F67619300080B2072690FBF6F706FB06
:103740001700D2B2764EC9B28E1916F8016CB618AF
:103750003018EDB2042695FBF6F707FB1657002F3D
:1037600003D1C9B2032900DA401E80B2072690FBBC
:10377000F6F706FB1700C0B2F0BC70472DE9F04F1A
:1037800083B004005FF000096648B4FBF0F0ADF8C8
:1037900004006448B4FBF0F100FB114083460120B3
:1037A0008246504610F1010A5F4980B251F820006C
:1037B000584502D219F10109F3E7BDF804001FFAD8
:1037C00089F919EB8000ADF80200BDF8020010F590
:1037D000FA60050054481FFA8AFA10EB8A0050F884
:1037E000080CBBEB000B00208246ADB2042095FB19
:1037F000F0F101FB1051002915D0504610F1010ADB
:103800004A4980B251F820005845F6D35046401E30
:10381000060046481FFA8AFA10EB8A0050F8080C96
:10382000BBEB000B14E0504610F1010A404980B296
:1038300051F820005845F6D35046401E06003C483B
:103840001FFA8AFA10EB8A0050F8080CBBEB000B49
:103850003248BBFBF0F080463048BBFBF0F100FB88
:1038600011BB18F1010007004FF46160BBFBF0F0E1
:103870008DF806004FF46160BBFBF0F100FB11B066
:103880003C21B0FBF1F08DF801004FF46160BBFB0F
:10389000F0F100FB11B03C21B0FBF1F201FB120092
:1038A0008DF80000234805802348067023480770E0
:1038B0009DF80600224908709DF801002149087012
:1038C0009DF80000204908703A00D2B23100C9B218
:1038D000280080B2FFF716FF1C490870BDE8F78F7B
:1038E00000B583B000F095FA1948007801901948A6
:1038F0000078009018480378184802781848017832
:1039000018480088FFF794FE00F05DFA00F081FA95
:1039100007BD0000580400208C04002080510100E5
:10392000E8930008801F860770050020C00400206F
:10393000F4040020F42200203D2300203F23002037
:103940004023002041230020422300203E2300206A
:1039500043230020BF050020BE050020BD05002038
:10396000BC050020BA05002000B583B05FF400302C
:1039700000F0E4FA5FF40030009001208DF80600BA
:1039800000208DF8040008208DF8050000A800F044
:103990007DFA07BD80B5042000F0F4FA4AF2A55183
:1039A000884232D000F064FEFFF79AFF4AF2A55138
:1039B000042000F0D9FA4FF47A71082000F0D4FA0C
:1039C00040F6C4110C2000F0CFFA0121102000F0C5
:1039D000CBFA0021142000F0C7FA4021182000F093
:1039E000C3FA00211C2000F0BFFA4FF47A712020A6
:1039F00000F0BAFA40F6C411242000F0B5FA40F203
:103A00003511282000F0B0FA0EE0012000F056FE3B
:103A100000F0FFF900F002FA00F0FBF901210220AA
:103A200000F0A8F900F0F5F901BD38B504000D006B
:103A3000290089B2200080B200F096FA200080B2FE
:103A400000F0A0FAADB2A84201D0002000E00120B1
:103A500032BD10B50400200080B200F093FA10BD12
:103A6000010000BF09D0B0FA80F18840C91CC1F53F
:103A70008461090501EBD02140057047B0B581EAAA
:103A8000030C0CF0004C40F2FF7515EA11541DBFF9
:103A900015EA1357AC42AF4239E0E41923EA455323
:103AA00043F48013C90241F0004141EA505EC7026D
:103AB0001100A7FB020200284FF00000EEFB0120DE
:103AC0004FF00001E3FB072118BF42F0010240184C
:103AD00000214941E3FB0E01A4F580640F0302D2EB
:103AE00052004041494154F101046CDD470872F134
:103AF000004250F1000051EB0451A1F580115CBF70
:103B000041EA0C01B0BD4CEA05510020B0BD05EA08
:103B10001357AC4214BFAF4241E050EA410E1CBF04
:103B200052EA430E02E061460020B0BD24423C440C
:103B30001BD15FEA070EF6D0090302BF0146002041
:103B4000AEF1140EB1FA81F7AEEB070401FA07FEED
:103B50000C37C7F1200100FA07F7C8404EEA000E03
:103B600023EA455343F48013A2E733F00043B3FA4A
:103B700083F704BFB2FA82FE77440B3FE41BB7F130
:103B8000200E2FBF02FA0EF3BB40C7F1200E22FA1F
:103B90000EFE38BF43EA0E03BA40641C82E750EAC7
:103BA000410E14BF52EA430E6FF000014FF40017AC
:103BB00017EB430F8ABF194617EB410FB5E74CEAE5
:103BC00005510020B0BDD4F10104B4F120070FDA93
:103BD000C4F12007520828BF42F0010210FA07F58D
:103BE00001FA07F7E1BF2A43E0403843E1400FE024
:103BF000352C98DCC7F1200452EA400220FA07F283
:103C000018BF42F0010231FA07F0A1400A43002137
:103C100072F1004250F1000051EB0C01B0BD50F8C0
:103C2000041B61B150F8042BD30744BFA9F1010371
:103C30009A18002342F8043B091FFAD1EFE77047B6
:103C400070B44FF0004591EA030C44BF6B4000F0A4
:103C50007DBD00BF841A71EB030603D2001BB14186
:103C6000121973414FF4001C1CEB410F34BF7CEB65
:103C7000430443E00C0DA4EB1356352E50DC45EA0B
:103C8000C323DB0A45EAC121C912B6F120050DDDC7
:103C900063FA05F6EB4086EA0305124218BF45F0C9
:103CA0000105C01851F100010CD213E062FA06F5CB
:103CB000F2405540F3415A40B340F3405A40801817
:103CC000594107D349085FEA30005FEA350528BF4C
:103CD00045F0010501F58011420875F1004250F1EF
:103CE000000041EB045170BC4FF4001C1CEB410F71
:103CF00038BF70470020090D090570471CEB410FC4
:103D000010D252EA43060BD0BCEB410F05D80C0D84
:103D1000AB43661E342EB5DD02E0AB43801859413B
:103D200070BC704770BC7047F446400D40EAC1203B
:103D3000490006D200F00EF8004248BF6FF0004084
:103D4000604700F007F84FF0004188428CBF0846FA
:103D50004042604740F00040490DA1F58061491C98
:103D600005D4D1F11F0154BFC840C01770474FF0B0
:103D700000007047C9B2002905D03C4A12880243AE
:103D80003A4B1A8004E0394A12888243374B1A8032
:103D900070473748008850F0100035490880704758
:103DA000334800884FF6EF7108403149088070476A
:103DB00000203049098808002F49098889B280B25B
:103DC00050EA0140704710B50400FFF7E2FF200CF5
:103DD0002949088027480480FFF7E2FF10BD10B58D
:103DE0000400FFF7D6FF200C10F00F0023490880D5
:103DF00023480480FFF7D4FF10BD10B50400FFF77F
:103E0000C8FF200C1F4908801F480480FFF7C8FF27
:103E100010BD174800888006FBD5704714480088FD
:103E20004FF6F771084012490880114800880007D2
:103E3000FBD57047010000200D4A12880A4010008F
:103E40000A4A128892B20A4205D0C0B2002802D0B3
:103E50000122100001E000221000C0B270470449A6
:103E600009888143024A1180704700000028004001
:103E7000042800401C280040182800400828004062
:103E80000C280040202800402428004000212D4A12
:103E900011008279002A36D02A4A126803689A43B0
:103EA000284B1A60284A126803689A43264B1A6006
:103EB000027951180A6803681A430A60234A126893
:103EC00003689A43214B1A60214A126803689A4397
:103ED0001F4B1A604279102A0CD11C4A12680368E1
:103EE0001A431A4B1A601A4A126803681A43184B8D
:103EF0001A600EE0134A1100427951180A680368EB
:103F00001A430A6005E0027951180A6803689A4367
:103F10000A6070470100002000220A4B1B680B401A
:103F20001A000C4B1B680B4204D0002A02D001235C
:103F3000180001E000231800C0B27047054908606E
:103F400070470000000401400404014008040140DF
:103F50000C0401401404014080B5012000F0CAFDAA
:103F6000002000F0C7FD01BD81B0002200920C4A84
:103F70000092009A80B28218009289B2009A116071
:103F800001B0704781B0010000200090044800900B
:103F9000009889B2081800900098008801B0704716
:103FA000006C004080B500F0EFFD01211D2000F005
:103FB00083FD012144F2010000F07EFD01215FF448
:103FC000C02000F088FD0121032000F084FD0121C4
:103FD000042000F080FD0121012000F05EFD0120A1
:103FE00000F0DFFC612000F089FD0028FAD00121FB
:103FF0005FF0C05000F06FFD01BD80B55FF4803010
:1040000000F05AFC00F083FCDFF81C160870DFF8A3
:104010001806007801280ED1012000F098FC392004
:1040200000F06CFD0028FAD0022000F095FC00F0B2
:104030009DFC0828FBD101BD80B545F2555000F02C
:104040004FFE062000F050FE40F6DF7000F050FEFC
:1040500000F052FE00F055FE01BD80B50121DFF8F1
:10406000CC05FDF782FD4FF40070ADF80000032091
:104070008DF8020018208DF8030000A9DFF8B005C4
:10408000FDF7C2FC0420ADF8000000A9DFF8A00590
:10409000FDF7BAFC4FF48060ADF8000000A9DFF82E
:1040A0009405FDF7B1FC4FF48060ADF800000420EA
:1040B0008DF8030000A9DFF87805FDF7A5FC0820BE
:1040C000ADF8000000A9DFF86805FDF79DFC4FF48E
:1040D0000060ADF8000000A9DFF85805FDF794FC7A
:1040E0001020ADF8000003208DF8020004208DF8A8
:1040F000030000A9DFF84005FDF786FC0420ADF8B9
:10410000000010208DF8030003208DF8020000A9A4
:10411000DFF82405FDF778FC3020ADF80000102012
:104120008DF8030003208DF802003020DFF80C1515
:10413000086000A9DFF8F804FDF766FC42F23020C1
:10414000ADF8000010208DF8030003208DF8020068
:1041500042F23020DFF8E814086000A9DFF8D40448
:10416000FDF752FC4FF44060ADF8000010208DF8D0
:10417000030003208DF802004FF44060DFF8C41400
:10418000086000A9DFF8B004FDF73EFCC020ADF8E0
:10419000000010208DF8030003208DF8020000A914
:1041A000DFF88C04FDF730FC0320ADF80000102090
:1041B0008DF8030003208DF8020000A9DFF87404D5
:1041C000FDF722FC4FF40040ADF8000010208DF800
:1041D000030003208DF8020000A9DFF85804FDF762
:1041E00013FC4FF48070ADF8000018208DF8030028
:1041F00003208DF8020000A9DFF83804FDF704FC65
:104200000820ADF8000010208DF8030003208DF881
:1042100002000820DFF83014086000A9DFF8140459
:10422000FDF7F2FB4FF48050ADF8000003208DF84D
:10423000020004208DF8030000A9DFF8FC03FDF75D
:10424000E3FB0320ADF8000003208DF802001020EE
:104250008DF8030000A9DFF8D803FDF7D5FB4FF474
:104260000060ADF8000010208DF8030003208DF8E9
:1042700002004FF40060DFF8D413086000A9DFF8F3
:10428000B003FDF7C1FB4FF4E070ADF80000102063
:104290008DF8030003208DF802004FF4E070DFF882
:1042A000B013086000A9DFF89003FDF7ADFBC02054
:1042B000ADF8000003208DF8020010208DF80300F7
:1042C0004020DFF8841308608020DFF87C1308604A
:1042D00000A9DFF86003FDF797FB0120ADF80000AF
:1042E00000208DF8030000A9DFF84C03FDF78CFBDC
:1042F0000220ADF8000003208DF8020028208DF880
:10430000030000A9DFF83003FDF77EFB01BD00B517
:1043100087B04FF47A70ADF804003720ADF8000094
:104320000020ADF806001020ADF8020000A95FF0F3
:10433000804000F0F1FC01215FF0804000F096FD2C
:1043400000215FF0804000F0A8FD012201215FF014
:10435000804000F080FD01215FF0804000F06DFDA5
:1043600040F2CF70ADF804004720ADF80000002007
:10437000ADF806000020ADF8020000A9DFF8D40275
:1043800000F0CAFC0121DFF8CC0200F06FFD7020C4
:10439000ADF80C000120ADF80E000220ADF81400BD
:1043A0000020ADF8120003A9DFF8A80200F0FEFC1F
:1043B0000821DFF8A00200F067FD0121DFF8940278
:1043C00000F03BFD07B000BD00B583B04FF4805056
:1043D000FFF7B4FD4FF48050009000208DF80400EA
:1043E00008208DF8050001208DF8060000A8FFF7D1
:1043F0004DFD0C210220FDF7FCFB1020FFF79EFD78
:1044000004210220FDF7F5FB1020009000208DF81C
:1044100004000C208DF8050001208DF8060000A88E
:10442000FFF734FD07BD80B54FF4A06000F076FDC6
:104430001C208DF8000000208DF8010000208DF870
:10444000020001208DF8030000A800F06CFD272079
:104450008DF8000003208DF8010001208DF8020086
:1044600001208DF8030000A800F05DFD25208DF8E7
:10447000000000208DF8010001208DF802000120CD
:104480008DF8030000A800F04EFD26208DF80000F6
:1044900000208DF8010002208DF8020001208DF827
:1044A000030000A800F03FFD09208DF80000012066
:1044B0008DF8010000208DF8020001208DF8030026
:1044C00000A800F030FD0A208DF8000001208DF8D2
:1044D000010002208DF8020001208DF8030000A8E1
:1044E00000F021FD28208DF8000001208DF801004A
:1044F00001208DF8020001208DF8030000A800F0D3
:1045000012FD0B208DF8000002208DF80100012023
:104510008DF8020001208DF8030000A800F003FDD3
:1045200003208DF8000003208DF8010000208DF895
:10453000020000208DF8030000A800F0F4FC292000
:104540008DF8000002208DF8010000208DF8020097
:1045500001208DF8030000A800F0E5FC01BD00B5C6
:104560008FB03D48FEF754FF3C4804903C4805900E
:1045700010200690012007900020089080200990CC
:1045800000200A9000200B9000200C904FF4405027
:104590000D9000200E9004A92F48FEF7BEFF314871
:1045A000FEF736FF2D4804902F4805900020069016
:1045B0004FF48070079020200C9004A92948FEF742
:1045C000ACFF4FF4165000900020ADF8040000201E
:1045D000ADF806000020ADF808000020ADF80C0092
:1045E0000C20ADF80A0000A9204800F0DBFC0121F6
:1045F0001E4800F049FD40211C4800F08DFD0028B8
:10460000F9D00122C021194800F077FD0121154899
:10461000FEF7A2FF01211048FEF79EFF402113483C
:1046200000F089FD0FB000BD3A23002000023000E9
:1046300000080140000C0140001001401408014036
:10464000140C014014100140100C014010080140EE
:104650001010014000080040800002400444004067
:10466000000100206C000240C816002000440040F9
:1046700080B5012000F022F8FFF76EFC012000F069
:104680007AF9412000F03AFA0028FAD04FF480700D
:1046900000F08BF9012000F08EF9FFF7BFFBFFF768
:1046A000B8FB47F6FF70FFF79AFBFFF7B2FB01215B
:1046B0000220FFF75FFBFFF7ACFB01BDC0B21A4958
:1046C0000860704710B40022184B1B681A0092084B
:1046D00092000243154B1A60154B1B6853F00403FC
:1046E000134C2360C9B2012901D130BF00E020BFC3
:1046F0000F4B1B6833F004030D4C236010BC704754
:10470000010000200B4A12680A4202D00122100068
:1047100001E000221000C0B270470449096851EA64
:104720008001024A1160704720000E420070004074
:1047300010ED00E00470004070B44FF0004591EAC5
:10474000030F44BF6B40FFF785BA00BF841A71EBBB
:10475000030604D26E40001BB141121973414FF49D
:10476000001C1CEB410F34BF7CEB430684E00C0DB6
:10477000A4EB1356362E7DDC012E43DC45EAC32321
:1047800043EA525312BFD20292025B08240545EA63
:10479000C12141EA5051D2EBC020994125D407D123
:1047A000B0FA80F610FA06F164D00020203608E056
:1047B000B1FA81F6B140C6F1200220FA02F21143AB
:1047C000B0404FEAF474B4EB465434F001064FEABB
:1047D00074040AD8D6F50016760D04F00044F040B3
:1047E00061FA06F25040F1404840C00A40EA4150A8
:1047F00021F0004128BF5FEA500550F1000044EB72
:10480000D12137E045EAC323DB0A45EAC121C90AC1
:10481000B6F120050EDD42EA0242120CC5F1200677
:1048200003FA06F6EB4042EA06056D42984161F153
:1048300000010DE062FA06F5F240554063FA06FC0D
:1048400082EA0C02F3405A406D42904161EB030151
:1048500011F4801F05D1641E620502D06D00404135
:10486000494121F48011430875F1004350F10000E3
:1048700041EB045170BC70471CEB410F15D223F083
:10488000004352EA43060BD04FEA4C0CBCEB410FFD
:1048900004D80C0D661E342EB7DDEBE7801A994163
:1048A00050EA410608BF0021E4E708BF1CEB430FB4
:1048B00028BF6FF00001DDE7DFF89012096831F4DE
:1048C0008031DFF888221160DFF88012096831F446
:1048D0008021DFF8782211600100B1F5803F03D01C
:1048E000B1F5802F09D011E0DFF86012096851F4AA
:1048F0008031DFF85822116008E0DFF850120968B3
:1049000051F4A021DFF844221160FFE7704738B569
:104910000020009000240025312000F0EFF8050071
:104920000098401C00900098B0F5A06F02D0EDB246
:10493000002DF1D0312000F0E1F8002802D0012054
:10494000040001E0002004002000C0B232BDC0B26B
:10495000DFF800120860704700217D4A12681100DC
:104960008908890001437A4A1160704778480068D5
:1049700010F00C0070470021774A11700021764A30
:104980001170C0B20100012902D0042904D007E04F
:104990000121714A117003E005216F4A1170FFE790
:1049A0007047C0B26D49086070476B4909680143A0
:1049B000694A11607047C0B269490860704730B4F5
:1049C0000021002200230024614D2D6815F00C0504
:1049D00029000D00002D04D0042D05D0082D06D08F
:1049E00026E0604D056025E05E4D056022E0584DF3
:1049F0002D6815F470152A00554D2D6815F4803575
:104A00002B00920C921C002B04D1574D05FB02F594
:104A100005600CE04E4D2D68AD0304D5524D05FBED
:104A200002F5056003E04F4D05FB02F5056001E06E
:104A30004C4D0560464D2D6815F0F005290009091B
:104A40004A4D4D5D2C000568E5404560404D2D68A0
:104A500015F4E0652900090A444D4D5D2C004568B8
:104A6000E54085603A4D2D6815F460552900C90A66
:104A70003E4D4D5D2C004568E540C560344D2D68C8
:104A800015F440452900890B394D4D5D2C00C56852
:104A9000B5FBF4F5056130BC7047C9B2002905D0FB
:104AA000344A12680243334B1A6004E0314A1268F8
:104AB0008243304B1A607047C9B2002905D02E4A94
:104AC000126802432C4B1A6004E02B4A126882439E
:104AD000294B1A607047C9B2002905D0274A1268CD
:104AE0000243264B1A6004E0244A12688243234B97
:104AF0001A607047C0B222490860704710B40100C4
:104B0000002200230020C9B24C09E4B22200012A8D
:104B100003D10E4C2468230008E0022A03D10E4C76
:104B20002468230002E0174C24682300C9B211F066
:104B30001F04220033FA02F4E40702D50124200006
:104B400001E000242000C0B210BC704700100240F9
:104B500004100240600042422010024080044242A1
:104B60003C04424200127A0000093D008405002006
:104B7000B005002014100240181002401C10024022
:104B8000400442422410024080B54E48006850F074
:104B900001004C4908604C4800684C4908404A49AB
:104BA0000860484800684A49084046490860454846
:104BB000006830F48020434908604348006830F4BE
:104BC000FE00414908605FF41F004249086000F0A0
:104BD00005F85FF000604049086001BD80B500F055
:104BE00001F801BD82B000200190002000903548FE
:104BF000006850F48030334908603248006810F48F
:104C0000003000900198401C01900098002803D1CA
:104C10000198B0F5A06FF0D12A480068800302D552
:104C20000120009001E0002000900098012847D169
:104C30002A48006850F0100028490860274800689A
:104C400080088000254908602448006850F0020070
:104C5000224908601C4800681B4908601A4800681F
:104C6000194908601848006850F4806016490860C7
:104C70001548006830F47C10134908601248006839
:104C800050F4A810104908600E48006850F0807079
:104C90000C4908600B4800688001FBD50A48006891
:104CA00080088000084908600748006850F002004A
:104CB000054908600448006810F00C000828F9D184
:104CC00002B0704700100240041002400000FFF8DC
:104CD000FFFFF6FE0810024008ED00E00020024051
:104CE00080B20A4908607047C0B20949086070473D
:104CF00080B20849086070474AF6AA200349086054
:104D000070474CF6CC4001490860704700300040C5
:104D10000430004008300040002203881A00DFF809
:104D2000D031984212D0DFF8E03198420ED0B0F185
:104D3000804F0BD0DFF8BC31984207D0DFF8B83194
:104D4000984203D0DFF8B431984204D14FF68F7304
:104D50001A404B881A43DFF8A831984208D0DFF890
:104D6000A431984204D04FF6FF431A40CB881A432F
:104D700002808B8883850B880385DFF87431984225
:104D80000FD0DFF8843198420BD0DFF880319842A1
:104D900007D0DFF87C31984203D0DFF878319842B1
:104DA00001D10B7A038601238382704770B40023FC
:104DB00000240022058C4FF6FF6635400584058CE3
:104DC0002C0085882A00858B2B004FF68F752B4091
:104DD0004FF6FC752B400D882B434FF6FF552C40AA
:104DE0000D8954EA05244D8854EA0524DFF8005162
:104DF000A84203D0DFF82051A84217D14FF2FF7527
:104E00002C404D8954EA05244FF6FF352C408D88FF
:104E100054EA05244EF6FF752A404DF6FF752A40E8
:104E20008D8952EA0512CD8952EA05128280838368
:104E3000CD888587048470BC7047C9B2002904D02E
:104E4000028852F00102028004E002884FF6FE73ED
:104E50001A4002807047D2B2002A03D083890B43E4
:104E6000838102E083898B4383817047C9B2002923
:104E700004D0028852F08002028004E002884FF6DB
:104E80007F731A40028070470022838B1A004FF60E
:104E9000F7731A400A438283704789B2002904D00D
:104EA000028852F00402028004E002884FF6FB738D
:104EB0001A400280704730B4020000200023002412
:104EC000158A0D402B0095890D402C009BB2002BBC
:104ED00005D0A4B2002C02D00125280001E0002555
:104EE0002800C0B230BC704789B2CA430282704702
:104EF000002C01400004004000080040000C00406D
:104F00000010004000140040003401400040014007
:104F10000044014000480140003401401C49014365
:104F20001C4A1160704770B4002300210F22C4781E
:104F3000002C20D0174C246814F4E064D4F5E0640D
:104F4000240A2300D3F104042100DA4044788C4081
:104F500023008478144023431B010F4C05782B5504
:104F60000124057815F01F05AC400C4D067876112C
:104F700045F8264009E00124057815F01F05AC40EE
:104F8000074D0678761145F8264070BC7047000042
:104F90000000FA050CED00E000E400E000E100E0B4
:104FA00080E100E02DE9F04786B004000D00002606
:104FB00000275FF000085FF000095FF0000AA88991
:104FC0000028A246208A06004CF6FF700640E888BA
:104FD00006432682A08906004EF6F3100640A888F4
:104FE00029890843698908430643A681A08A0600E7
:104FF0004FF6FF400640A8890643A68200A8FFF7A7
:10500000DEFC2048824502D10398070001E00298A7
:105010000700A089000408D5192000FB07F02968C3
:105020004900B0FBF1F0804607E0192000FB07F0D3
:1050300029688900B0FBF1F080466420B8FBF0F0ED
:10504000000106003009642101FB10808146A0891F
:10505000000409D55FEAC90032306421B0FBF1F0E9
:1050600010F00700064308E05FEA091032306421BF
:10507000B0FBF1F010F00F000643268106B0BDE84A
:10508000F087000000380140C9B2002904D08289AD
:1050900052F40052828104E082894DF6FF731A4077
:1050A00082817047F0B4002300240025002689B2D5
:1050B00040F66A17B94206000F00FFB27F09FFB23F
:1050C0003B0089B211F01F073C000127A7403D00BB
:1050D000012B01D10C3604E0022B01D1103600E087
:1050E0001436D2B2002A03D037682F43376002E06B
:1050F0003768AF433760F0BC7047D2B2002A03D0A4
:10510000838A0B43838202E0838A8B4383827047C6
:105110008088C005C00D70470200002089B2B1F53B
:10512000007F13880B4202D00123180001E0002306
:105130001800C0B2704789B28A0589B2CA4302809A
:10514000704770B40200002300250024002089B2BB
:1051500040F66A16B1420E00F6B27609F6B2340095
:1051600089B211F01F063500012616FA05F5012C4B
:1051700002D19689354006E0022C02D1168A3540CC
:1051800001E0968A354089B20E0AB6B23300012694
:1051900016FA03F316883340002D04D0002B02D0FA
:1051A0000126300001E000263000C0B270BC70471C
:1051B00080B54FF40060DFF8F81908604FF48050B4
:1051C000DFF8EC190860FCF761FD4FF40060DFF8D0
:1051D000E4190860FCF75AFD4FF48050DFF8D41949
:1051E0000860FCF753FD002002BD80B54FF400605D
:1051F000DFF8C01908604FF48050DFF8B819086074
:10520000FCF744FD4FF48050DFF8A4190860FCF768
:105210003DFD4FF40060DFF898190860FCF736FD9B
:1052200001BD80B54FF48050DFF8881908604FF455
:105230000060DFF880190860FCF728FD4FF480500B
:10524000DFF86C190860FCF721FD4FF48050DFF89F
:1052500064190860FCF71AFD01BD80B54FF4805059
:10526000DFF8501908604FF40060DFF84419086057
:10527000FCF70CFD4FF48050DFF834190860FCF7A0
:1052800005FD4FF48050DFF82C190860FCF7FEFC98
:1052900001BD70B5040000264FF48050DFF81419EA
:1052A000086000200500EDB2082D1FDA200605D5A4
:1052B0004FF40060DFF8F818086004E04FF4006075
:1052C000DFF8F01808606400FCF7E0FC4FF4805051
:1052D000DFF8DC180860FCF7D9FC4FF48050DFF8E9
:1052E000D4180860FCF7D2FC6D1CDCE7DFF8C808B6
:1052F000006830F47040DFF8C0180860DFF8B808C4
:10530000006850F40040DFF8B01808604FF4006007
:10531000DFF89C1808604FF48050DFF8941808609C
:10532000FCF7B4FCDFF89408006800051CD5761C77
:10533000F6B2152EF6DB4FF48050DFF878180860CF
:10534000FCF7A4FCDFF87008006830F47040DFF868
:1053500068180860DFF86008006850F44050DFF813
:1053600058180860002017E04FF48050DFF8441808
:105370000860FCF78BFCDFF84008006830F47040F0
:10538000DFF834180860DFF83008006850F4405047
:10539000DFF824180860012070BD38B5DFF8180860
:1053A000006830F47040DFF810180860DFF8080873
:1053B000006850F40040DFF8001808604FF4006007
:1053C000DFF8EC1708604FF48050DFF8E81708604A
:1053D0000020050000200400E4B2082C17DA4FF486
:1053E0008050DFF8CC170860FCF750FC6D00DFF848
:1053F000CC070068000501D555F001054FF4805039
:10540000DFF8B0170860FCF741FC641CE4E7DFF844
:10541000A807006830F47040DFF89C170860DFF8D8
:105420009807006850F44050DFF88C170860280097
:10543000C0B232BD80B58020DFF8841708604020FC
:10544000DFF87C170860FCF721FC8020DFF8741778
:105450000860FCF71BFC4020DFF868170860FCF7C9
:1054600015FC002002BD80B58020DFF858170860C9
:105470004020DFF850170860FCF708FC4020DFF8F8
:1054800040170860FCF702FC8020DFF83417086042
:10549000FCF7FCFB01BD80B54020DFF82817086051
:1054A0008020DFF820170860FCF7F0FB4020DFF8D1
:1054B00010170860FCF7EAFB4020DFF808170860C7
:1054C000FCF7E4FB01BD80B54020DFF8F81608606A
:1054D0008020DFF8EC160860FCF7D8FB4020DFF8EE
:1054E000E0160860FCF7D2FB4020DFF8D816086011
:1054F000FCF7CCFB01BD70B5040000250026402060
:10550000DFF8C016086000200500EDB2082D1BDA98
:10551000200604D58020DFF8A816086003E080206C
:10552000DFF8A01608606400FCF7B0FB4020DFF84D
:1055300090160860FCF7AAFB4020DFF88816086088
:10554000FCF7A4FB6D1CE0E7DFF87C0600680001B7
:105550000009DFF874160860DFF86C06006850F088
:105560000040DFF8641608608020DFF854160860F9
:105570004020DFF84C160860FCF788FBDFF84C068B
:10558000006800061BD5761CF6B2152EF6DB40200F
:10559000DFF830160860FCF779FBDFF82C060068AE
:1055A00000010009DFF820160860DFF81C0600681B
:1055B00050F04050DFF810160860002016E0402040
:1055C000DFF800160860FCF761FBDFF8FC050068F7
:1055D00000010009DFF8F0150860DFF8EC0500684D
:1055E00050F04050DFF8E0150860012070BD38B57C
:1055F000DFF8D405006800010009DFF8CC15086069
:10560000DFF8C405006850F00040DFF8BC15086002
:105610008020DFF8AC1508604020DFF8A81508608E
:105620000020050000200400E4B2082C15DA402018
:10563000DFF88C150860FCF729FB6D00DFF88C059E
:105640000068000601D555F001054020DFF874150B
:105650000860FCF71BFB641CE6E7DFF86C050068DC
:1056600000010009DFF860150860DFF85C050068DC
:1056700050F04050DFF8501508602800C0B232BD2D
:105680002DE9F84305000E0017009846089C5FFAC4
:1056900088F8B8F1010F40F0A480012F29D1FFF75D
:1056A00087FD8146B9F1000F1BD10020DFF82015DE
:1056B000087054F00104DFF81C050470DFF81405CD
:1056C0000078FFF7E6FD8146B9F1010F40F0308127
:1056D000FFF763FE3070FFF7C0FDFFF786FD012086
:1056E00027E1DFF8EC040078401CDFF8E4140870D0
:1056F0001EE1022F2FD1FFF75BFD8146B9F1000FAC
:1057000021D10020DFF8C814087054F00104DFF83C
:10571000C4040470DFF8BC040078FFF7BAFD8146CA
:10572000B9F1010F40F00481FFF737FE3070FFF749
:1057300078FD761CFFF731FE3070FFF78EFDFFF726
:1057400054FD0120F5E0DFF888040078401CDFF804
:1057500080140870ECE0FFF72BFD8146B9F1000FD3
:1057600037D10020DFF86814087054F00104DFF826
:1057700064040470DFF85C040078FFF78AFD81465A
:10578000B9F1010F40F0D480002F1ED0032F06D0B6
:10579000FFF703FE3070FFF744FD761C7F1E032FDA
:1057A000F2D1FFF7FAFD3070FFF73BFD761CFFF7F3
:1057B000F4FD3070FFF735FD761CFFF7EEFD30701D
:1057C000FFF74BFD00200700DEE7FFF70EFD01208D
:1057D000AFE0DFF8FC030078401CDFF8F41308703A
:1057E000A6E05FFA88F8B8F1020F40F0A180012F1F
:1057F00029D1FFF71FFE8146B9F1000F1BD1002010
:10580000DFF8D413087054F00104DFF8C803047003
:10581000DFF8C0030078FFF76EFE8146B9F1010F93
:1058200040F08680FFF7E3FE3070FFF74CFEFFF795
:105830001AFE01207DE0DFF8A0030078401CDFF8AD
:105840009813087074E0022F2ED1FFF7F3FD814604
:10585000B9F1000F20D10020DFF87C13087054F05C
:105860000104DFF870030470DFF868030078FFF7C5
:1058700042FE8146B9F1010F5AD1FFF7B8FE3070F0
:10588000FFF709FE761CFFF7B2FE3070FFF71BFE34
:10589000FFF7E9FD01204CE0DFF83C030078401CF5
:1058A000DFF83413087043E0FFF7C4FD8146B9F117
:1058B000000F36D10020DFF82013087054F00104E7
:1058C000DFF810030470DFF80C030078FFF713FE15
:1058D0008146B9F1010F2BD1002F1ED0032F06D026
:1058E000FFF785FE3070FFF7D6FD761C7F1E032F75
:1058F000F2D1FFF77CFE3070FFF7CDFD761CFFF78D
:1059000076FE3070FFF7C7FD761CFFF770FE307033
:10591000FFF7D9FD00200700DEE7FFF7A4FD012017
:1059200007E0DFF8B4020078401CDFF8AC12087022
:105930000020BDE8F2832DE9F84305000E001700B2
:105940009846089C5FFA88F8B8F1010F3ED1FFF73E
:105950002FFC8146B9F1000F32D10020DFF8701220
:10596000087014F0FE04DFF86C020470DFF86402C3
:105970000078FFF78EFC8146B9F1010F66D13078CF
:10598000FFF787FC8146761C7F1E3800471E0028E3
:105990000FD0B9F1010F0AD13078FFF77AFC8146B8
:1059A000B9F1010F01D1761CEFE700204FE0002094
:1059B0004DE0B9F1010F49D1FFF717FC012046E096
:1059C00083480078401C824908703FE05FFA88F8FD
:1059D000B8F1020F3AD1FFF72DFD8146B9F1000F62
:1059E0002FD100207C49087014F0FE04794804701F
:1059F00078480078FFF77FFD8146B9F1010F25D186
:105A00003078FFF778FD8146761C7F1E3800471EF0
:105A100000280FD0B9F1010F0AD13078FFF76BFDE4
:105A20008146B9F1010F01D1761CEFE700200EE0AD
:105A300000200CE0B9F1010F08D1FFF714FD01209F
:105A400005E065480078401C634908700020BDE807
:105A5000F2832DE9F84304000D0020888146A068F8
:105A60000700A0888046012D0CD15FFA89F9CDF896
:105A700000902B00DBB2424639005848FFF75BFF2D
:105A800006003AE0022D0CD15FFA89F9CDF80090BA
:105A90002B00DBB2424639005148FFF74CFF0600AD
:105AA0002BE0032D0CD15FFA89F9CDF800902B0083
:105AB000DBB2424639004A48FFF73DFF06001CE0D2
:105AC000042D0CD15FFA89F9CDF800902B00DBB2E0
:105AD000424639004248FFF72EFF06000DE0052D33
